{
  "contractName": "Decentratwitter",
  "abi": [
    {
      "inputs": [],
      "stateMutability": "nonpayable",
      "type": "constructor"
    },
    {
      "anonymous": false,
      "inputs": [
        {
          "indexed": true,
          "internalType": "address",
          "name": "owner",
          "type": "address"
        },
        {
          "indexed": true,
          "internalType": "address",
          "name": "approved",
          "type": "address"
        },
        {
          "indexed": true,
          "internalType": "uint256",
          "name": "tokenId",
          "type": "uint256"
        }
      ],
      "name": "Approval",
      "type": "event"
    },
    {
      "anonymous": false,
      "inputs": [
        {
          "indexed": true,
          "internalType": "address",
          "name": "owner",
          "type": "address"
        },
        {
          "indexed": true,
          "internalType": "address",
          "name": "operator",
          "type": "address"
        },
        {
          "indexed": false,
          "internalType": "bool",
          "name": "approved",
          "type": "bool"
        }
      ],
      "name": "ApprovalForAll",
      "type": "event"
    },
    {
      "anonymous": false,
      "inputs": [
        {
          "indexed": false,
          "internalType": "uint256",
          "name": "id",
          "type": "uint256"
        },
        {
          "indexed": false,
          "internalType": "string",
          "name": "hash",
          "type": "string"
        },
        {
          "indexed": false,
          "internalType": "uint256",
          "name": "tipAmount",
          "type": "uint256"
        },
        {
          "indexed": false,
          "internalType": "address payable",
          "name": "author",
          "type": "address"
        }
      ],
      "name": "PostCreated",
      "type": "event"
    },
    {
      "anonymous": false,
      "inputs": [
        {
          "indexed": false,
          "internalType": "uint256",
          "name": "id",
          "type": "uint256"
        },
        {
          "indexed": false,
          "internalType": "string",
          "name": "hash",
          "type": "string"
        },
        {
          "indexed": false,
          "internalType": "uint256",
          "name": "tipAmount",
          "type": "uint256"
        },
        {
          "indexed": false,
          "internalType": "address payable",
          "name": "author",
          "type": "address"
        }
      ],
      "name": "PostTipped",
      "type": "event"
    },
    {
      "anonymous": false,
      "inputs": [
        {
          "indexed": true,
          "internalType": "address",
          "name": "from",
          "type": "address"
        },
        {
          "indexed": true,
          "internalType": "address",
          "name": "to",
          "type": "address"
        },
        {
          "indexed": true,
          "internalType": "uint256",
          "name": "tokenId",
          "type": "uint256"
        }
      ],
      "name": "Transfer",
      "type": "event"
    },
    {
      "inputs": [
        {
          "internalType": "address",
          "name": "to",
          "type": "address"
        },
        {
          "internalType": "uint256",
          "name": "tokenId",
          "type": "uint256"
        }
      ],
      "name": "approve",
      "outputs": [],
      "stateMutability": "nonpayable",
      "type": "function"
    },
    {
      "inputs": [
        {
          "internalType": "address",
          "name": "owner",
          "type": "address"
        }
      ],
      "name": "balanceOf",
      "outputs": [
        {
          "internalType": "uint256",
          "name": "",
          "type": "uint256"
        }
      ],
      "stateMutability": "view",
      "type": "function",
      "constant": true
    },
    {
      "inputs": [
        {
          "internalType": "uint256",
          "name": "tokenId",
          "type": "uint256"
        }
      ],
      "name": "getApproved",
      "outputs": [
        {
          "internalType": "address",
          "name": "",
          "type": "address"
        }
      ],
      "stateMutability": "view",
      "type": "function",
      "constant": true
    },
    {
      "inputs": [
        {
          "internalType": "address",
          "name": "owner",
          "type": "address"
        },
        {
          "internalType": "address",
          "name": "operator",
          "type": "address"
        }
      ],
      "name": "isApprovedForAll",
      "outputs": [
        {
          "internalType": "bool",
          "name": "",
          "type": "bool"
        }
      ],
      "stateMutability": "view",
      "type": "function",
      "constant": true
    },
    {
      "inputs": [],
      "name": "name",
      "outputs": [
        {
          "internalType": "string",
          "name": "",
          "type": "string"
        }
      ],
      "stateMutability": "view",
      "type": "function",
      "constant": true
    },
    {
      "inputs": [
        {
          "internalType": "uint256",
          "name": "tokenId",
          "type": "uint256"
        }
      ],
      "name": "ownerOf",
      "outputs": [
        {
          "internalType": "address",
          "name": "",
          "type": "address"
        }
      ],
      "stateMutability": "view",
      "type": "function",
      "constant": true
    },
    {
      "inputs": [],
      "name": "postCount",
      "outputs": [
        {
          "internalType": "uint256",
          "name": "",
          "type": "uint256"
        }
      ],
      "stateMutability": "view",
      "type": "function",
      "constant": true
    },
    {
      "inputs": [
        {
          "internalType": "uint256",
          "name": "",
          "type": "uint256"
        }
      ],
      "name": "posts",
      "outputs": [
        {
          "internalType": "uint256",
          "name": "id",
          "type": "uint256"
        },
        {
          "internalType": "string",
          "name": "hash",
          "type": "string"
        },
        {
          "internalType": "uint256",
          "name": "tipAmount",
          "type": "uint256"
        },
        {
          "internalType": "address payable",
          "name": "author",
          "type": "address"
        }
      ],
      "stateMutability": "view",
      "type": "function",
      "constant": true
    },
    {
      "inputs": [
        {
          "internalType": "address",
          "name": "",
          "type": "address"
        }
      ],
      "name": "profiles",
      "outputs": [
        {
          "internalType": "uint256",
          "name": "",
          "type": "uint256"
        }
      ],
      "stateMutability": "view",
      "type": "function",
      "constant": true
    },
    {
      "inputs": [
        {
          "internalType": "address",
          "name": "from",
          "type": "address"
        },
        {
          "internalType": "address",
          "name": "to",
          "type": "address"
        },
        {
          "internalType": "uint256",
          "name": "tokenId",
          "type": "uint256"
        }
      ],
      "name": "safeTransferFrom",
      "outputs": [],
      "stateMutability": "nonpayable",
      "type": "function"
    },
    {
      "inputs": [
        {
          "internalType": "address",
          "name": "from",
          "type": "address"
        },
        {
          "internalType": "address",
          "name": "to",
          "type": "address"
        },
        {
          "internalType": "uint256",
          "name": "tokenId",
          "type": "uint256"
        },
        {
          "internalType": "bytes",
          "name": "_data",
          "type": "bytes"
        }
      ],
      "name": "safeTransferFrom",
      "outputs": [],
      "stateMutability": "nonpayable",
      "type": "function"
    },
    {
      "inputs": [
        {
          "internalType": "address",
          "name": "operator",
          "type": "address"
        },
        {
          "internalType": "bool",
          "name": "approved",
          "type": "bool"
        }
      ],
      "name": "setApprovalForAll",
      "outputs": [],
      "stateMutability": "nonpayable",
      "type": "function"
    },
    {
      "inputs": [
        {
          "internalType": "bytes4",
          "name": "interfaceId",
          "type": "bytes4"
        }
      ],
      "name": "supportsInterface",
      "outputs": [
        {
          "internalType": "bool",
          "name": "",
          "type": "bool"
        }
      ],
      "stateMutability": "view",
      "type": "function",
      "constant": true
    },
    {
      "inputs": [],
      "name": "symbol",
      "outputs": [
        {
          "internalType": "string",
          "name": "",
          "type": "string"
        }
      ],
      "stateMutability": "view",
      "type": "function",
      "constant": true
    },
    {
      "inputs": [],
      "name": "tokenCount",
      "outputs": [
        {
          "internalType": "uint256",
          "name": "",
          "type": "uint256"
        }
      ],
      "stateMutability": "view",
      "type": "function",
      "constant": true
    },
    {
      "inputs": [
        {
          "internalType": "uint256",
          "name": "tokenId",
          "type": "uint256"
        }
      ],
      "name": "tokenURI",
      "outputs": [
        {
          "internalType": "string",
          "name": "",
          "type": "string"
        }
      ],
      "stateMutability": "view",
      "type": "function",
      "constant": true
    },
    {
      "inputs": [
        {
          "internalType": "address",
          "name": "from",
          "type": "address"
        },
        {
          "internalType": "address",
          "name": "to",
          "type": "address"
        },
        {
          "internalType": "uint256",
          "name": "tokenId",
          "type": "uint256"
        }
      ],
      "name": "transferFrom",
      "outputs": [],
      "stateMutability": "nonpayable",
      "type": "function"
    },
    {
      "inputs": [
        {
          "internalType": "string",
          "name": "_tokenURI",
          "type": "string"
        }
      ],
      "name": "mint",
      "outputs": [
        {
          "internalType": "uint256",
          "name": "",
          "type": "uint256"
        }
      ],
      "stateMutability": "nonpayable",
      "type": "function"
    },
    {
      "inputs": [
        {
          "internalType": "uint256",
          "name": "_id",
          "type": "uint256"
        }
      ],
      "name": "setProfile",
      "outputs": [],
      "stateMutability": "nonpayable",
      "type": "function"
    },
    {
      "inputs": [
        {
          "internalType": "string",
          "name": "_postHash",
          "type": "string"
        }
      ],
      "name": "uploadPost",
      "outputs": [],
      "stateMutability": "nonpayable",
      "type": "function"
    },
    {
      "inputs": [
        {
          "internalType": "uint256",
          "name": "_id",
          "type": "uint256"
        }
      ],
      "name": "tipPostOwner",
      "outputs": [],
      "stateMutability": "payable",
      "type": "function",
      "payable": true
    },
    {
      "inputs": [],
      "name": "getAllPosts",
      "outputs": [
        {
          "components": [
            {
              "internalType": "uint256",
              "name": "id",
              "type": "uint256"
            },
            {
              "internalType": "string",
              "name": "hash",
              "type": "string"
            },
            {
              "internalType": "uint256",
              "name": "tipAmount",
              "type": "uint256"
            },
            {
              "internalType": "address payable",
              "name": "author",
              "type": "address"
            }
          ],
          "internalType": "struct Decentratwitter.Post[]",
          "name": "_posts",
          "type": "tuple[]"
        }
      ],
      "stateMutability": "view",
      "type": "function",
      "constant": true
    },
    {
      "inputs": [],
      "name": "getMyNFTs",
      "outputs": [
        {
          "internalType": "uint256[]",
          "name": "_ids",
          "type": "uint256[]"
        }
      ],
      "stateMutability": "view",
      "type": "function",
      "constant": true
    }
  ],
  "bytecode": "0x60806040523480156200001157600080fd5b506040518060400160405280600f81526020017f446563656e7472617477697474657200000000000000000000000000000000008152506040518060400160405280600481526020017f4461707000000000000000000000000000000000000000000000000000000000815250816000908051906020019062000096929190620000b8565b508060019080519060200190620000af929190620000b8565b505050620001cd565b828054620000c69062000197565b90600052602060002090601f016020900481019282620000ea576000855562000136565b82601f106200010557805160ff191683800117855562000136565b8280016001018555821562000136579182015b828111156200013557825182559160200191906001019062000118565b5b50905062000145919062000149565b5090565b5b80821115620001645760008160009055506001016200014a565b5090565b7f4e487b7100000000000000000000000000000000000000000000000000000000600052602260045260246000fd5b60006002820490506001821680620001b057607f821691505b60208210811415620001c757620001c662000168565b5b50919050565b613e2e80620001dd6000396000f3fe6080604052600436106101405760003560e01c806370a08231116100b6578063bbe156271161006f578063bbe1562714610471578063bdd05adb146104ae578063c87b56dd146104d7578063d6313c0614610514578063d85d3d2714610530578063e985e9c51461056d57610140565b806370a082311461036357806385d3cb37146103a057806395d89b41146103c95780639f181b5e146103f4578063a22cb4651461041f578063b88d4fde1461044857610140565b806317906c2e1161010857806317906c2e1461025357806323b872dd1461027e57806330561100146102a757806342842e0e146102d2578063629cb2e4146102fb5780636352211e1461032657610140565b806301ffc9a71461014557806306fdde0314610182578063081812fc146101ad578063095ea7b3146101ea5780630b1e7f8314610213575b600080fd5b34801561015157600080fd5b5061016c600480360381019061016791906125bd565b6105aa565b6040516101799190612605565b60405180910390f35b34801561018e57600080fd5b5061019761068c565b6040516101a491906126b9565b60405180910390f35b3480156101b957600080fd5b506101d460048036038101906101cf9190612711565b61071e565b6040516101e1919061277f565b60405180910390f35b3480156101f657600080fd5b50610211600480360381019061020c91906127c6565b6107a3565b005b34801561021f57600080fd5b5061023a60048036038101906102359190612711565b6108bb565b60405161024a9493929190612836565b60405180910390f35b34801561025f57600080fd5b50610268610993565b6040516102759190612882565b60405180910390f35b34801561028a57600080fd5b506102a560048036038101906102a0919061289d565b610999565b005b3480156102b357600080fd5b506102bc6109f9565b6040516102c99190612a7d565b60405180910390f35b3480156102de57600080fd5b506102f960048036038101906102f4919061289d565b610bba565b005b34801561030757600080fd5b50610310610bda565b60405161031d9190612b4e565b60405180910390f35b34801561033257600080fd5b5061034d60048036038101906103489190612711565b610cde565b60405161035a919061277f565b60405180910390f35b34801561036f57600080fd5b5061038a60048036038101906103859190612b70565b610d90565b6040516103979190612882565b60405180910390f35b3480156103ac57600080fd5b506103c760048036038101906103c29190612711565b610e48565b005b3480156103d557600080fd5b506103de610f05565b6040516103eb91906126b9565b60405180910390f35b34801561040057600080fd5b50610409610f97565b6040516104169190612882565b60405180910390f35b34801561042b57600080fd5b5061044660048036038101906104419190612bc9565b610f9d565b005b34801561045457600080fd5b5061046f600480360381019061046a9190612d3e565b610fb3565b005b34801561047d57600080fd5b5061049860048036038101906104939190612b70565b611015565b6040516104a59190612882565b60405180910390f35b3480156104ba57600080fd5b506104d560048036038101906104d09190612e62565b61102d565b005b3480156104e357600080fd5b506104fe60048036038101906104f99190612711565b6111e1565b60405161050b91906126b9565b60405180910390f35b61052e60048036038101906105299190612711565b611333565b005b34801561053c57600080fd5b5061055760048036038101906105529190612e62565b611655565b6040516105649190612882565b60405180910390f35b34801561057957600080fd5b50610594600480360381019061058f9190612eab565b61169c565b6040516105a19190612605565b60405180910390f35b60007f80ac58cd000000000000000000000000000000000000000000000000000000007bffffffffffffffffffffffffffffffffffffffffffffffffffffffff1916827bffffffffffffffffffffffffffffffffffffffffffffffffffffffff1916148061067557507f5b5e139f000000000000000000000000000000000000000000000000000000007bffffffffffffffffffffffffffffffffffffffffffffffffffffffff1916827bffffffffffffffffffffffffffffffffffffffffffffffffffffffff1916145b80610685575061068482611730565b5b9050919050565b60606000805461069b90612f1a565b80601f01602080910402602001604051908101604052809291908181526020018280546106c790612f1a565b80156107145780601f106106e957610100808354040283529160200191610714565b820191906000526020600020905b8154815290600101906020018083116106f757829003601f168201915b5050505050905090565b60006107298261179a565b610768576040517f08c379a000000000000000000000000000000000000000000000000000000000815260040161075f90612fbe565b60405180910390fd5b6004600083815260200190815260200160002060009054906101000a900473ffffffffffffffffffffffffffffffffffffffff169050919050565b60006107ae82610cde565b90508073ffffffffffffffffffffffffffffffffffffffff168373ffffffffffffffffffffffffffffffffffffffff16141561081f576040517f08c379a000000000000000000000000000000000000000000000000000000000815260040161081690613050565b60405180910390fd5b8073ffffffffffffffffffffffffffffffffffffffff1661083e611806565b73ffffffffffffffffffffffffffffffffffffffff16148061086d575061086c81610867611806565b61169c565b5b6108ac576040517f08c379a00000000000000000000000000000000000000000000000000000000081526004016108a3906130e2565b60405180910390fd5b6108b6838361180e565b505050565b600a6020528060005260406000206000915090508060000154908060010180546108e490612f1a565b80601f016020809104026020016040519081016040528092919081815260200182805461091090612f1a565b801561095d5780601f106109325761010080835404028352916020019161095d565b820191906000526020600020905b81548152906001019060200180831161094057829003601f168201915b5050505050908060020154908060030160009054906101000a900473ffffffffffffffffffffffffffffffffffffffff16905084565b60085481565b6109aa6109a4611806565b826118c7565b6109e9576040517f08c379a00000000000000000000000000000000000000000000000000000000081526004016109e090613174565b60405180910390fd5b6109f48383836119a5565b505050565b606060085467ffffffffffffffff811115610a1757610a16612c13565b5b604051908082528060200260200182016040528015610a5057816020015b610a3d612470565b815260200190600190039081610a355790505b50905060005b8151811015610bb657600a6000600183610a7091906131c3565b815260200190815260200160002060405180608001604052908160008201548152602001600182018054610aa390612f1a565b80601f0160208091040260200160405190810160405280929190818152602001828054610acf90612f1a565b8015610b1c5780601f10610af157610100808354040283529160200191610b1c565b820191906000526020600020905b815481529060010190602001808311610aff57829003601f168201915b50505050508152602001600282015481526020016003820160009054906101000a900473ffffffffffffffffffffffffffffffffffffffff1673ffffffffffffffffffffffffffffffffffffffff1673ffffffffffffffffffffffffffffffffffffffff1681525050828281518110610b9857610b97613219565b5b60200260200101819052508080610bae90613248565b915050610a56565b5090565b610bd583838360405180602001604052806000815250610fb3565b505050565b6060610be533610d90565b67ffffffffffffffff811115610bfe57610bfd612c13565b5b604051908082528060200260200182016040528015610c2c5781602001602082028036833780820191505090505b509050600080600754905060005b81811015610cd8573373ffffffffffffffffffffffffffffffffffffffff16610c6e600183610c6991906131c3565b610cde565b73ffffffffffffffffffffffffffffffffffffffff161415610cc557600181610c9791906131c3565b848481518110610caa57610ca9613219565b5b6020026020010181815250508280610cc190613248565b9350505b8080610cd090613248565b915050610c3a565b50505090565b6000806002600084815260200190815260200160002060009054906101000a900473ffffffffffffffffffffffffffffffffffffffff169050600073ffffffffffffffffffffffffffffffffffffffff168173ffffffffffffffffffffffffffffffffffffffff161415610d87576040517f08c379a0000000000000000000000000000000000000000000000000000000008152600401610d7e90613303565b60405180910390fd5b80915050919050565b60008073ffffffffffffffffffffffffffffffffffffffff168273ffffffffffffffffffffffffffffffffffffffff161415610e01576040517f08c379a0000000000000000000000000000000000000000000000000000000008152600401610df890613395565b60405180910390fd5b600360008373ffffffffffffffffffffffffffffffffffffffff1673ffffffffffffffffffffffffffffffffffffffff168152602001908152602001600020549050919050565b3373ffffffffffffffffffffffffffffffffffffffff16610e6882610cde565b73ffffffffffffffffffffffffffffffffffffffff1614610ebe576040517f08c379a0000000000000000000000000000000000000000000000000000000008152600401610eb590613427565b60405180910390fd5b80600960003373ffffffffffffffffffffffffffffffffffffffff1673ffffffffffffffffffffffffffffffffffffffff1681526020019081526020016000208190555050565b606060018054610f1490612f1a565b80601f0160208091040260200160405190810160405280929190818152602001828054610f4090612f1a565b8015610f8d5780601f10610f6257610100808354040283529160200191610f8d565b820191906000526020600020905b815481529060010190602001808311610f7057829003601f168201915b5050505050905090565b60075481565b610faf610fa8611806565b8383611c0c565b5050565b610fc4610fbe611806565b836118c7565b611003576040517f08c379a0000000000000000000000000000000000000000000000000000000008152600401610ffa90613174565b60405180910390fd5b61100f84848484611d79565b50505050565b60096020528060005260406000206000915090505481565b600061103833610d90565b11611078576040517f08c379a000000000000000000000000000000000000000000000000000000000815260040161106f906134b9565b60405180910390fd5b60008151116110bc576040517f08c379a00000000000000000000000000000000000000000000000000000000081526004016110b390613525565b60405180910390fd5b600860008154809291906110cf90613248565b919050555060405180608001604052806008548152602001828152602001600081526020013373ffffffffffffffffffffffffffffffffffffffff16815250600a600060085481526020019081526020016000206000820151816000015560208201518160010190805190602001906111499291906124ae565b506040820151816002015560608201518160030160006101000a81548173ffffffffffffffffffffffffffffffffffffffff021916908373ffffffffffffffffffffffffffffffffffffffff1602179055509050507fc66336337a24e513f909b3b25119854dba8385d51307dbc7d31d1b2805e19c7e600854826000336040516111d6949392919061358a565b60405180910390a150565b60606111ec8261179a565b61122b576040517f08c379a000000000000000000000000000000000000000000000000000000000815260040161122290613648565b60405180910390fd5b600060066000848152602001908152602001600020805461124b90612f1a565b80601f016020809104026020016040519081016040528092919081815260200182805461127790612f1a565b80156112c45780601f10611299576101008083540402835291602001916112c4565b820191906000526020600020905b8154815290600101906020018083116112a757829003601f168201915b5050505050905060006112d5611dd5565b90506000815114156112eb57819250505061132e565b6000825111156113205780826040516020016113089291906136a4565b6040516020818303038152906040529250505061132e565b61132984611dec565b925050505b919050565b60008111801561134557506008548111155b611384576040517f08c379a000000000000000000000000000000000000000000000000000000000815260040161137b90613714565b60405180910390fd5b6000600a6000838152602001908152602001600020604051806080016040529081600082015481526020016001820180546113be90612f1a565b80601f01602080910402602001604051908101604052809291908181526020018280546113ea90612f1a565b80156114375780601f1061140c57610100808354040283529160200191611437565b820191906000526020600020905b81548152906001019060200180831161141a57829003601f168201915b50505050508152602001600282015481526020016003820160009054906101000a900473ffffffffffffffffffffffffffffffffffffffff1673ffffffffffffffffffffffffffffffffffffffff1673ffffffffffffffffffffffffffffffffffffffff168152505090503373ffffffffffffffffffffffffffffffffffffffff16816060015173ffffffffffffffffffffffffffffffffffffffff161415611515576040517f08c379a000000000000000000000000000000000000000000000000000000000815260040161150c90613780565b60405180910390fd5b806060015173ffffffffffffffffffffffffffffffffffffffff166108fc349081150290604051600060405180830381858888f1935050505015801561155f573d6000803e3d6000fd5b50348160400181815161157291906131c3565b9150818152505080600a60008481526020019081526020016000206000820151816000015560208201518160010190805190602001906115b39291906124ae565b506040820151816002015560608201518160030160006101000a81548173ffffffffffffffffffffffffffffffffffffffff021916908373ffffffffffffffffffffffffffffffffffffffff1602179055509050507f20988fe475351e75813672abada1dddb7ac67cbbeb81e61e1160b8329d8cdf1c828260200151836040015184606001516040516116499493929190612836565b60405180910390a15050565b60006007600081548092919061166a90613248565b919050555061167b33600754611e93565b61168760075483611eb1565b611692600754610e48565b6007549050919050565b6000600560008473ffffffffffffffffffffffffffffffffffffffff1673ffffffffffffffffffffffffffffffffffffffff16815260200190815260200160002060008373ffffffffffffffffffffffffffffffffffffffff1673ffffffffffffffffffffffffffffffffffffffff16815260200190815260200160002060009054906101000a900460ff16905092915050565b60007f01ffc9a7000000000000000000000000000000000000000000000000000000007bffffffffffffffffffffffffffffffffffffffffffffffffffffffff1916827bffffffffffffffffffffffffffffffffffffffffffffffffffffffff1916149050919050565b60008073ffffffffffffffffffffffffffffffffffffffff166002600084815260200190815260200160002060009054906101000a900473ffffffffffffffffffffffffffffffffffffffff1673ffffffffffffffffffffffffffffffffffffffff1614159050919050565b600033905090565b816004600083815260200190815260200160002060006101000a81548173ffffffffffffffffffffffffffffffffffffffff021916908373ffffffffffffffffffffffffffffffffffffffff160217905550808273ffffffffffffffffffffffffffffffffffffffff1661188183610cde565b73ffffffffffffffffffffffffffffffffffffffff167f8c5be1e5ebec7d5bd14f71427d1e84f3dd0314c0f7b2291e5b200ac8c7c3b92560405160405180910390a45050565b60006118d28261179a565b611911576040517f08c379a000000000000000000000000000000000000000000000000000000000815260040161190890613812565b60405180910390fd5b600061191c83610cde565b90508073ffffffffffffffffffffffffffffffffffffffff168473ffffffffffffffffffffffffffffffffffffffff16148061195e575061195d818561169c565b5b8061199c57508373ffffffffffffffffffffffffffffffffffffffff166119848461071e565b73ffffffffffffffffffffffffffffffffffffffff16145b91505092915050565b8273ffffffffffffffffffffffffffffffffffffffff166119c582610cde565b73ffffffffffffffffffffffffffffffffffffffff1614611a1b576040517f08c379a0000000000000000000000000000000000000000000000000000000008152600401611a12906138a4565b60405180910390fd5b600073ffffffffffffffffffffffffffffffffffffffff168273ffffffffffffffffffffffffffffffffffffffff161415611a8b576040517f08c379a0000000000000000000000000000000000000000000000000000000008152600401611a8290613936565b60405180910390fd5b611a96838383611f25565b611aa160008261180e565b6001600360008573ffffffffffffffffffffffffffffffffffffffff1673ffffffffffffffffffffffffffffffffffffffff1681526020019081526020016000206000828254611af19190613956565b925050819055506001600360008473ffffffffffffffffffffffffffffffffffffffff1673ffffffffffffffffffffffffffffffffffffffff1681526020019081526020016000206000828254611b4891906131c3565b92505081905550816002600083815260200190815260200160002060006101000a81548173ffffffffffffffffffffffffffffffffffffffff021916908373ffffffffffffffffffffffffffffffffffffffff160217905550808273ffffffffffffffffffffffffffffffffffffffff168473ffffffffffffffffffffffffffffffffffffffff167fddf252ad1be2c89b69c2b068fc378daa952ba7f163c4a11628f55a4df523b3ef60405160405180910390a4611c07838383611f2a565b505050565b8173ffffffffffffffffffffffffffffffffffffffff168373ffffffffffffffffffffffffffffffffffffffff161415611c7b576040517f08c379a0000000000000000000000000000000000000000000000000000000008152600401611c72906139d6565b60405180910390fd5b80600560008573ffffffffffffffffffffffffffffffffffffffff1673ffffffffffffffffffffffffffffffffffffffff16815260200190815260200160002060008473ffffffffffffffffffffffffffffffffffffffff1673ffffffffffffffffffffffffffffffffffffffff16815260200190815260200160002060006101000a81548160ff0219169083151502179055508173ffffffffffffffffffffffffffffffffffffffff168373ffffffffffffffffffffffffffffffffffffffff167f17307eab39ab6107e8899845ad3d59bd9653f200f220920489ca2b5937696c3183604051611d6c9190612605565b60405180910390a3505050565b611d848484846119a5565b611d9084848484611f2f565b611dcf576040517f08c379a0000000000000000000000000000000000000000000000000000000008152600401611dc690613a68565b60405180910390fd5b50505050565b606060405180602001604052806000815250905090565b6060611df78261179a565b611e36576040517f08c379a0000000000000000000000000000000000000000000000000000000008152600401611e2d90613afa565b60405180910390fd5b6000611e40611dd5565b90506000815111611e605760405180602001604052806000815250611e8b565b80611e6a846120b7565b604051602001611e7b9291906136a4565b6040516020818303038152906040525b915050919050565b611ead828260405180602001604052806000815250612218565b5050565b611eba8261179a565b611ef9576040517f08c379a0000000000000000000000000000000000000000000000000000000008152600401611ef090613b8c565b60405180910390fd5b80600660008481526020019081526020016000209080519060200190611f209291906124ae565b505050565b505050565b505050565b6000611f508473ffffffffffffffffffffffffffffffffffffffff16612273565b156120aa578373ffffffffffffffffffffffffffffffffffffffff1663150b7a02611f79611806565b8786866040518563ffffffff1660e01b8152600401611f9b9493929190613c01565b6020604051808303816000875af1925050508015611fd757506040513d601f19601f82011682018060405250810190611fd49190613c62565b60015b61205a573d8060008114612007576040519150601f19603f3d011682016040523d82523d6000602084013e61200c565b606091505b50600081511415612052576040517f08c379a000000000000000000000000000000000000000000000000000000000815260040161204990613a68565b60405180910390fd5b805181602001fd5b63150b7a0260e01b7bffffffffffffffffffffffffffffffffffffffffffffffffffffffff1916817bffffffffffffffffffffffffffffffffffffffffffffffffffffffff1916149150506120af565b600190505b949350505050565b606060008214156120ff576040518060400160405280600181526020017f30000000000000000000000000000000000000000000000000000000000000008152509050612213565b600082905060005b6000821461213157808061211a90613248565b915050600a8261212a9190613cbe565b9150612107565b60008167ffffffffffffffff81111561214d5761214c612c13565b5b6040519080825280601f01601f19166020018201604052801561217f5781602001600182028036833780820191505090505b5090505b6000851461220c576001826121989190613956565b9150600a856121a79190613cef565b60306121b391906131c3565b60f81b8183815181106121c9576121c8613219565b5b60200101907effffffffffffffffffffffffffffffffffffffffffffffffffffffffffffff1916908160001a905350600a856122059190613cbe565b9450612183565b8093505050505b919050565b6122228383612296565b61222f6000848484611f2f565b61226e576040517f08c379a000000000000000000000000000000000000000000000000000000000815260040161226590613a68565b60405180910390fd5b505050565b6000808273ffffffffffffffffffffffffffffffffffffffff163b119050919050565b600073ffffffffffffffffffffffffffffffffffffffff168273ffffffffffffffffffffffffffffffffffffffff161415612306576040517f08c379a00000000000000000000000000000000000000000000000000000000081526004016122fd90613d6c565b60405180910390fd5b61230f8161179a565b1561234f576040517f08c379a000000000000000000000000000000000000000000000000000000000815260040161234690613dd8565b60405180910390fd5b61235b60008383611f25565b6001600360008473ffffffffffffffffffffffffffffffffffffffff1673ffffffffffffffffffffffffffffffffffffffff16815260200190815260200160002060008282546123ab91906131c3565b92505081905550816002600083815260200190815260200160002060006101000a81548173ffffffffffffffffffffffffffffffffffffffff021916908373ffffffffffffffffffffffffffffffffffffffff160217905550808273ffffffffffffffffffffffffffffffffffffffff16600073ffffffffffffffffffffffffffffffffffffffff167fddf252ad1be2c89b69c2b068fc378daa952ba7f163c4a11628f55a4df523b3ef60405160405180910390a461246c60008383611f2a565b5050565b6040518060800160405280600081526020016060815260200160008152602001600073ffffffffffffffffffffffffffffffffffffffff1681525090565b8280546124ba90612f1a565b90600052602060002090601f0160209004810192826124dc5760008555612523565b82601f106124f557805160ff1916838001178555612523565b82800160010185558215612523579182015b82811115612522578251825591602001919060010190612507565b5b5090506125309190612534565b5090565b5b8082111561254d576000816000905550600101612535565b5090565b6000604051905090565b600080fd5b600080fd5b60007fffffffff0000000000000000000000000000000000000000000000000000000082169050919050565b61259a81612565565b81146125a557600080fd5b50565b6000813590506125b781612591565b92915050565b6000602082840312156125d3576125d261255b565b5b60006125e1848285016125a8565b91505092915050565b60008115159050919050565b6125ff816125ea565b82525050565b600060208201905061261a60008301846125f6565b92915050565b600081519050919050565b600082825260208201905092915050565b60005b8381101561265a57808201518184015260208101905061263f565b83811115612669576000848401525b50505050565b6000601f19601f8301169050919050565b600061268b82612620565b612695818561262b565b93506126a581856020860161263c565b6126ae8161266f565b840191505092915050565b600060208201905081810360008301526126d38184612680565b905092915050565b6000819050919050565b6126ee816126db565b81146126f957600080fd5b50565b60008135905061270b816126e5565b92915050565b6000602082840312156127275761272661255b565b5b6000612735848285016126fc565b91505092915050565b600073ffffffffffffffffffffffffffffffffffffffff82169050919050565b60006127698261273e565b9050919050565b6127798161275e565b82525050565b60006020820190506127946000830184612770565b92915050565b6127a38161275e565b81146127ae57600080fd5b50565b6000813590506127c08161279a565b92915050565b600080604083850312156127dd576127dc61255b565b5b60006127eb858286016127b1565b92505060206127fc858286016126fc565b9150509250929050565b61280f816126db565b82525050565b60006128208261273e565b9050919050565b61283081612815565b82525050565b600060808201905061284b6000830187612806565b818103602083015261285d8186612680565b905061286c6040830185612806565b6128796060830184612827565b95945050505050565b60006020820190506128976000830184612806565b92915050565b6000806000606084860312156128b6576128b561255b565b5b60006128c4868287016127b1565b93505060206128d5868287016127b1565b92505060406128e6868287016126fc565b9150509250925092565b600081519050919050565b600082825260208201905092915050565b6000819050602082019050919050565b612925816126db565b82525050565b600082825260208201905092915050565b600061294782612620565b612951818561292b565b935061296181856020860161263c565b61296a8161266f565b840191505092915050565b61297e81612815565b82525050565b600060808301600083015161299c600086018261291c565b50602083015184820360208601526129b4828261293c565b91505060408301516129c9604086018261291c565b5060608301516129dc6060860182612975565b508091505092915050565b60006129f38383612984565b905092915050565b6000602082019050919050565b6000612a13826128f0565b612a1d81856128fb565b935083602082028501612a2f8561290c565b8060005b85811015612a6b5784840389528151612a4c85826129e7565b9450612a57836129fb565b925060208a01995050600181019050612a33565b50829750879550505050505092915050565b60006020820190508181036000830152612a978184612a08565b905092915050565b600081519050919050565b600082825260208201905092915050565b6000819050602082019050919050565b6000612ad7838361291c565b60208301905092915050565b6000602082019050919050565b6000612afb82612a9f565b612b058185612aaa565b9350612b1083612abb565b8060005b83811015612b41578151612b288882612acb565b9750612b3383612ae3565b925050600181019050612b14565b5085935050505092915050565b60006020820190508181036000830152612b688184612af0565b905092915050565b600060208284031215612b8657612b8561255b565b5b6000612b94848285016127b1565b91505092915050565b612ba6816125ea565b8114612bb157600080fd5b50565b600081359050612bc381612b9d565b92915050565b60008060408385031215612be057612bdf61255b565b5b6000612bee858286016127b1565b9250506020612bff85828601612bb4565b9150509250929050565b600080fd5b600080fd5b7f4e487b7100000000000000000000000000000000000000000000000000000000600052604160045260246000fd5b612c4b8261266f565b810181811067ffffffffffffffff82111715612c6a57612c69612c13565b5b80604052505050565b6000612c7d612551565b9050612c898282612c42565b919050565b600067ffffffffffffffff821115612ca957612ca8612c13565b5b612cb28261266f565b9050602081019050919050565b82818337600083830152505050565b6000612ce1612cdc84612c8e565b612c73565b905082815260208101848484011115612cfd57612cfc612c0e565b5b612d08848285612cbf565b509392505050565b600082601f830112612d2557612d24612c09565b5b8135612d35848260208601612cce565b91505092915050565b60008060008060808587031215612d5857612d5761255b565b5b6000612d66878288016127b1565b9450506020612d77878288016127b1565b9350506040612d88878288016126fc565b925050606085013567ffffffffffffffff811115612da957612da8612560565b5b612db587828801612d10565b91505092959194509250565b600067ffffffffffffffff821115612ddc57612ddb612c13565b5b612de58261266f565b9050602081019050919050565b6000612e05612e0084612dc1565b612c73565b905082815260208101848484011115612e2157612e20612c0e565b5b612e2c848285612cbf565b509392505050565b600082601f830112612e4957612e48612c09565b5b8135612e59848260208601612df2565b91505092915050565b600060208284031215612e7857612e7761255b565b5b600082013567ffffffffffffffff811115612e9657612e95612560565b5b612ea284828501612e34565b91505092915050565b60008060408385031215612ec257612ec161255b565b5b6000612ed0858286016127b1565b9250506020612ee1858286016127b1565b9150509250929050565b7f4e487b7100000000000000000000000000000000000000000000000000000000600052602260045260246000fd5b60006002820490506001821680612f3257607f821691505b60208210811415612f4657612f45612eeb565b5b50919050565b7f4552433732313a20617070726f76656420717565727920666f72206e6f6e657860008201527f697374656e7420746f6b656e0000000000000000000000000000000000000000602082015250565b6000612fa8602c8361262b565b9150612fb382612f4c565b604082019050919050565b60006020820190508181036000830152612fd781612f9b565b9050919050565b7f4552433732313a20617070726f76616c20746f2063757272656e74206f776e6560008201527f7200000000000000000000000000000000000000000000000000000000000000602082015250565b600061303a60218361262b565b915061304582612fde565b604082019050919050565b600060208201905081810360008301526130698161302d565b9050919050565b7f4552433732313a20617070726f76652063616c6c6572206973206e6f74206f7760008201527f6e6572206e6f7220617070726f76656420666f7220616c6c0000000000000000602082015250565b60006130cc60388361262b565b91506130d782613070565b604082019050919050565b600060208201905081810360008301526130fb816130bf565b9050919050565b7f4552433732313a207472616e736665722063616c6c6572206973206e6f74206f60008201527f776e6572206e6f7220617070726f766564000000000000000000000000000000602082015250565b600061315e60318361262b565b915061316982613102565b604082019050919050565b6000602082019050818103600083015261318d81613151565b9050919050565b7f4e487b7100000000000000000000000000000000000000000000000000000000600052601160045260246000fd5b60006131ce826126db565b91506131d9836126db565b9250827fffffffffffffffffffffffffffffffffffffffffffffffffffffffffffffffff0382111561320e5761320d613194565b5b828201905092915050565b7f4e487b7100000000000000000000000000000000000000000000000000000000600052603260045260246000fd5b6000613253826126db565b91507fffffffffffffffffffffffffffffffffffffffffffffffffffffffffffffffff82141561328657613285613194565b5b600182019050919050565b7f4552433732313a206f776e657220717565727920666f72206e6f6e657869737460008201527f656e7420746f6b656e0000000000000000000000000000000000000000000000602082015250565b60006132ed60298361262b565b91506132f882613291565b604082019050919050565b6000602082019050818103600083015261331c816132e0565b9050919050565b7f4552433732313a2062616c616e636520717565727920666f7220746865207a6560008201527f726f206164647265737300000000000000000000000000000000000000000000602082015250565b600061337f602a8361262b565b915061338a82613323565b604082019050919050565b600060208201905081810360008301526133ae81613372565b9050919050565b7f4d757374206f776e20746865206e667420796f752077616e7420746f2073656c60008201527f65637420617320796f75722070726f66696c6500000000000000000000000000602082015250565b600061341160338361262b565b915061341c826133b5565b604082019050919050565b6000602082019050818103600083015261344081613404565b9050919050565b7f4d757374206f776e206120646563656e74726174776974746572204e4654207460008201527f6f20706f73740000000000000000000000000000000000000000000000000000602082015250565b60006134a360268361262b565b91506134ae82613447565b604082019050919050565b600060208201905081810360008301526134d281613496565b9050919050565b7f43616e6e6f74207061737320616e20656d707479206861736800000000000000600082015250565b600061350f60198361262b565b915061351a826134d9565b602082019050919050565b6000602082019050818103600083015261353e81613502565b9050919050565b6000819050919050565b6000819050919050565b600061357461356f61356a84613545565b61354f565b6126db565b9050919050565b61358481613559565b82525050565b600060808201905061359f6000830187612806565b81810360208301526135b18186612680565b90506135c0604083018561357b565b6135cd6060830184612827565b95945050505050565b7f45524337323155524953746f726167653a2055524920717565727920666f722060008201527f6e6f6e6578697374656e7420746f6b656e000000000000000000000000000000602082015250565b600061363260318361262b565b915061363d826135d6565b604082019050919050565b6000602082019050818103600083015261366181613625565b9050919050565b600081905092915050565b600061367e82612620565b6136888185613668565b935061369881856020860161263c565b80840191505092915050565b60006136b08285613673565b91506136bc8284613673565b91508190509392505050565b7f496e76616c696420706f73742069640000000000000000000000000000000000600082015250565b60006136fe600f8361262b565b9150613709826136c8565b602082019050919050565b6000602082019050818103600083015261372d816136f1565b9050919050565b7f43616e6e6f742074697020796f7572206f776e20706f73740000000000000000600082015250565b600061376a60188361262b565b915061377582613734565b602082019050919050565b600060208201905081810360008301526137998161375d565b9050919050565b7f4552433732313a206f70657261746f7220717565727920666f72206e6f6e657860008201527f697374656e7420746f6b656e0000000000000000000000000000000000000000602082015250565b60006137fc602c8361262b565b9150613807826137a0565b604082019050919050565b6000602082019050818103600083015261382b816137ef565b9050919050565b7f4552433732313a207472616e736665722066726f6d20696e636f72726563742060008201527f6f776e6572000000000000000000000000000000000000000000000000000000602082015250565b600061388e60258361262b565b915061389982613832565b604082019050919050565b600060208201905081810360008301526138bd81613881565b9050919050565b7f4552433732313a207472616e7366657220746f20746865207a65726f2061646460008201527f7265737300000000000000000000000000000000000000000000000000000000602082015250565b600061392060248361262b565b915061392b826138c4565b604082019050919050565b6000602082019050818103600083015261394f81613913565b9050919050565b6000613961826126db565b915061396c836126db565b92508282101561397f5761397e613194565b5b828203905092915050565b7f4552433732313a20617070726f766520746f2063616c6c657200000000000000600082015250565b60006139c060198361262b565b91506139cb8261398a565b602082019050919050565b600060208201905081810360008301526139ef816139b3565b9050919050565b7f4552433732313a207472616e7366657220746f206e6f6e20455243373231526560008201527f63656976657220696d706c656d656e7465720000000000000000000000000000602082015250565b6000613a5260328361262b565b9150613a5d826139f6565b604082019050919050565b60006020820190508181036000830152613a8181613a45565b9050919050565b7f4552433732314d657461646174613a2055524920717565727920666f72206e6f60008201527f6e6578697374656e7420746f6b656e0000000000000000000000000000000000602082015250565b6000613ae4602f8361262b565b9150613aef82613a88565b604082019050919050565b60006020820190508181036000830152613b1381613ad7565b9050919050565b7f45524337323155524953746f726167653a2055524920736574206f66206e6f6e60008201527f6578697374656e7420746f6b656e000000000000000000000000000000000000602082015250565b6000613b76602e8361262b565b9150613b8182613b1a565b604082019050919050565b60006020820190508181036000830152613ba581613b69565b9050919050565b600081519050919050565b600082825260208201905092915050565b6000613bd382613bac565b613bdd8185613bb7565b9350613bed81856020860161263c565b613bf68161266f565b840191505092915050565b6000608082019050613c166000830187612770565b613c236020830186612770565b613c306040830185612806565b8181036060830152613c428184613bc8565b905095945050505050565b600081519050613c5c81612591565b92915050565b600060208284031215613c7857613c7761255b565b5b6000613c8684828501613c4d565b91505092915050565b7f4e487b7100000000000000000000000000000000000000000000000000000000600052601260045260246000fd5b6000613cc9826126db565b9150613cd4836126db565b925082613ce457613ce3613c8f565b5b828204905092915050565b6000613cfa826126db565b9150613d05836126db565b925082613d1557613d14613c8f565b5b828206905092915050565b7f4552433732313a206d696e7420746f20746865207a65726f2061646472657373600082015250565b6000613d5660208361262b565b9150613d6182613d20565b602082019050919050565b60006020820190508181036000830152613d8581613d49565b9050919050565b7f4552433732313a20746f6b656e20616c7265616479206d696e74656400000000600082015250565b6000613dc2601c8361262b565b9150613dcd82613d8c565b602082019050919050565b60006020820190508181036000830152613df181613db5565b905091905056fea264697066735822122047b528e4d860993a65fd570e56701960e88378258ffbda914d98e0ffa8f6830764736f6c634300080c0033",
  "immutableReferences": {},
  "source": "// SPDX-License-Identifier: MIT\r\npragma solidity >=0.4.22 <0.9.0;\r\n\r\nimport \"@openzeppelin/contracts/access/Ownable.sol\";\r\nimport \"@openzeppelin/contracts/token/ERC721/extensions/ERC721URIStorage.sol\";\r\n\r\ncontract Decentratwitter is ERC721URIStorage{\r\n    uint256 public tokenCount;\r\n    uint256 public postCount;\r\n    mapping(address => uint256) public profiles;\r\n    mapping(uint256 => Post) public posts;\r\n\r\n    constructor() ERC721(\"Decentratwitter\",\"Dapp\") {}\r\n\r\n    struct Post {\r\n        uint256 id;\r\n        string hash;\r\n        uint256  tipAmount;\r\n        address payable author;\r\n    }\r\n\r\n    event PostCreated(\r\n        uint256 id,\r\n        string hash,\r\n        uint256 tipAmount,\r\n        address payable author\r\n    );\r\n    event PostTipped(\r\n        uint256 id,\r\n        string hash,\r\n        uint256 tipAmount,\r\n        address payable author\r\n    );\r\n\r\n    //create a nft\r\n    function mint(string memory _tokenURI) external returns (uint256) {\r\n        tokenCount++;\r\n        _safeMint(msg.sender,tokenCount);\r\n        _setTokenURI(tokenCount,_tokenURI);\r\n        setProfile(tokenCount);\r\n        return(tokenCount);\r\n    }\r\n\r\n    function setProfile(uint256 _id) public  {\r\n        require(ownerOf(_id) == msg.sender, \"Must own the nft you want to select as your profile\");\r\n        profiles[msg.sender] = _id;\r\n    }\r\n    function uploadPost(string memory _postHash) external {\r\n        require(balanceOf(msg.sender) > 0,\"Must own a decentratwitter NFT to post\");\r\n        //Make sure the post hash exists\r\n        require(bytes(_postHash).length > 0,\"Cannot pass an empty hash\");\r\n        //Increment post count\r\n        postCount++;\r\n        posts[postCount] = Post(postCount, _postHash,0,payable(msg.sender));\r\n\r\n        emit PostCreated(postCount, _postHash, 0, payable(msg.sender));\r\n    }\r\n    function tipPostOwner(uint256 _id) external payable {\r\n        //Make sure the id is valid\r\n        require(_id > 0 && _id <= postCount,\"Invalid post id\");\r\n        //Fetch the post\r\n        Post memory _post = posts[_id];\r\n        require(_post.author != msg.sender,\"Cannot tip your own post\");\r\n        _post.author.transfer(msg.value);\r\n        _post.tipAmount += msg.value;\r\n        posts[_id] = _post;\r\n        emit PostTipped(_id,_post.hash,_post.tipAmount,_post.author);\r\n    }\r\n    //Functions can be declared view in which case they promise not to modify the state.\r\n    function getAllPosts() external view returns(Post[] memory _posts){\r\n        //Dynamic memory arrays are created using new keyword.\r\n        _posts = new Post[](postCount);\r\n        for(uint256 i=0; i < _posts.length; i++) {\r\n            _posts[i] = posts[i+1];\r\n        }\r\n    }\r\n    function getMyNFTs() external view returns(uint256[] memory _ids) {\r\n        _ids = new uint256[](balanceOf(msg.sender));\r\n        uint256 currentIndex;\r\n        uint256 _tokenCount = tokenCount;\r\n        for(uint256 i=0;i<_tokenCount;i++){\r\n            if(ownerOf(i+1) == msg.sender){\r\n                _ids[currentIndex] = i + 1;\r\n                currentIndex++;\r\n            }\r\n        }\r\n    }\r\n}\r\n",
  "sourcePath": "D:\\rtest\\contracts\\Decentratwitter.sol",
  "compiler": {
    "name": "solc",
    "version": "0.8.12+commit.f00d7308.Emscripten.clang"
  },
  "schemaVersion": "3.4.7",
  "updatedAt": "2022-07-11T10:35:49.730Z",
  "networkType": "ethereum",
  "devdoc": {
    "kind": "dev",
    "methods": {
      "approve(address,uint256)": {
        "details": "See {IERC721-approve}."
      },
      "balanceOf(address)": {
        "details": "See {IERC721-balanceOf}."
      },
      "getApproved(uint256)": {
        "details": "See {IERC721-getApproved}."
      },
      "isApprovedForAll(address,address)": {
        "details": "See {IERC721-isApprovedForAll}."
      },
      "name()": {
        "details": "See {IERC721Metadata-name}."
      },
      "ownerOf(uint256)": {
        "details": "See {IERC721-ownerOf}."
      },
      "safeTransferFrom(address,address,uint256)": {
        "details": "See {IERC721-safeTransferFrom}."
      },
      "safeTransferFrom(address,address,uint256,bytes)": {
        "details": "See {IERC721-safeTransferFrom}."
      },
      "setApprovalForAll(address,bool)": {
        "details": "See {IERC721-setApprovalForAll}."
      },
      "supportsInterface(bytes4)": {
        "details": "See {IERC165-supportsInterface}."
      },
      "symbol()": {
        "details": "See {IERC721Metadata-symbol}."
      },
      "tokenURI(uint256)": {
        "details": "See {IERC721Metadata-tokenURI}."
      },
      "transferFrom(address,address,uint256)": {
        "details": "See {IERC721-transferFrom}."
      }
    },
    "version": 1
  },
  "userdoc": {
    "kind": "user",
    "methods": {},
    "version": 1
  }
}