{
  "contractName": "Marketplace",
  "abi": [
    {
      "inputs": [
        {
          "internalType": "uint256",
          "name": "_feePercent",
          "type": "uint256"
        }
      ],
      "stateMutability": "nonpayable",
      "type": "constructor"
    },
    {
      "anonymous": false,
      "inputs": [
        {
          "indexed": false,
          "internalType": "uint256",
          "name": "itemId",
          "type": "uint256"
        },
        {
          "indexed": true,
          "internalType": "address",
          "name": "nft",
          "type": "address"
        },
        {
          "indexed": false,
          "internalType": "uint256",
          "name": "tokenId",
          "type": "uint256"
        },
        {
          "indexed": false,
          "internalType": "uint256",
          "name": "price",
          "type": "uint256"
        },
        {
          "indexed": true,
          "internalType": "address",
          "name": "seller",
          "type": "address"
        },
        {
          "indexed": true,
          "internalType": "address",
          "name": "buyer",
          "type": "address"
        }
      ],
      "name": "Bought",
      "type": "event"
    },
    {
      "anonymous": false,
      "inputs": [
        {
          "indexed": false,
          "internalType": "uint256",
          "name": "itemId",
          "type": "uint256"
        },
        {
          "indexed": true,
          "internalType": "address",
          "name": "nft",
          "type": "address"
        },
        {
          "indexed": false,
          "internalType": "uint256",
          "name": "tokenId",
          "type": "uint256"
        },
        {
          "indexed": false,
          "internalType": "uint256",
          "name": "price",
          "type": "uint256"
        },
        {
          "indexed": true,
          "internalType": "address",
          "name": "seller",
          "type": "address"
        }
      ],
      "name": "Offered",
      "type": "event"
    },
    {
      "inputs": [],
      "name": "feeAccount",
      "outputs": [
        {
          "internalType": "address payable",
          "name": "",
          "type": "address"
        }
      ],
      "stateMutability": "view",
      "type": "function",
      "constant": true
    },
    {
      "inputs": [],
      "name": "feePercent",
      "outputs": [
        {
          "internalType": "uint256",
          "name": "",
          "type": "uint256"
        }
      ],
      "stateMutability": "view",
      "type": "function",
      "constant": true
    },
    {
      "inputs": [],
      "name": "itemCount",
      "outputs": [
        {
          "internalType": "uint256",
          "name": "",
          "type": "uint256"
        }
      ],
      "stateMutability": "view",
      "type": "function",
      "constant": true
    },
    {
      "inputs": [
        {
          "internalType": "uint256",
          "name": "",
          "type": "uint256"
        }
      ],
      "name": "items",
      "outputs": [
        {
          "internalType": "uint256",
          "name": "itemId",
          "type": "uint256"
        },
        {
          "internalType": "contract IERC721",
          "name": "nft",
          "type": "address"
        },
        {
          "internalType": "uint256",
          "name": "tokenId",
          "type": "uint256"
        },
        {
          "internalType": "uint256",
          "name": "price",
          "type": "uint256"
        },
        {
          "internalType": "address payable",
          "name": "seller",
          "type": "address"
        },
        {
          "internalType": "bool",
          "name": "sold",
          "type": "bool"
        }
      ],
      "stateMutability": "view",
      "type": "function",
      "constant": true
    },
    {
      "inputs": [
        {
          "internalType": "contract IERC721",
          "name": "_nft",
          "type": "address"
        },
        {
          "internalType": "uint256",
          "name": "_tokenId",
          "type": "uint256"
        },
        {
          "internalType": "uint256",
          "name": "_price",
          "type": "uint256"
        }
      ],
      "name": "makeItem",
      "outputs": [],
      "stateMutability": "nonpayable",
      "type": "function"
    },
    {
      "inputs": [
        {
          "internalType": "uint256",
          "name": "_itemId",
          "type": "uint256"
        }
      ],
      "name": "purchaseItem",
      "outputs": [],
      "stateMutability": "payable",
      "type": "function",
      "payable": true
    },
    {
      "inputs": [
        {
          "internalType": "uint256",
          "name": "_itemId",
          "type": "uint256"
        }
      ],
      "name": "getTotalPrice",
      "outputs": [
        {
          "internalType": "uint256",
          "name": "",
          "type": "uint256"
        }
      ],
      "stateMutability": "view",
      "type": "function",
      "constant": true
    }
  ],
  "bytecode": "0x60c060405234801561001057600080fd5b50604051620011dc380380620011dc833981810160405281019061003491906100b9565b60016000819055503373ffffffffffffffffffffffffffffffffffffffff1660808173ffffffffffffffffffffffffffffffffffffffff16815250508060a08181525050506100e6565b600080fd5b6000819050919050565b61009681610083565b81146100a157600080fd5b50565b6000815190506100b38161008d565b92915050565b6000602082840312156100cf576100ce61007e565b5b60006100dd848285016100a4565b91505092915050565b60805160a0516110c26200011a600039600081816101e601526102970152600081816101bc01526104bd01526110c26000f3fe6080604052600436106100705760003560e01c8063bfb231d21161004e578063bfb231d2146100f6578063ca7dd37514610138578063d38ea5bf14610175578063fa00afc71461019157610070565b806365e17c9d146100755780636bfb0d01146100a05780637fd6f15c146100cb575b600080fd5b34801561008157600080fd5b5061008a6101ba565b60405161009791906109d5565b60405180910390f35b3480156100ac57600080fd5b506100b56101de565b6040516100c29190610a09565b60405180910390f35b3480156100d757600080fd5b506100e06101e4565b6040516100ed9190610a09565b60405180910390f35b34801561010257600080fd5b5061011d60048036038101906101189190610a55565b610208565b60405161012f96959493929190610afc565b60405180910390f35b34801561014457600080fd5b5061015f600480360381019061015a9190610a55565b610291565b60405161016c9190610a09565b60405180910390f35b61018f600480360381019061018a9190610a55565b6102f4565b005b34801561019d57600080fd5b506101b860048036038101906101b39190610bad565b6106c2565b005b7f000000000000000000000000000000000000000000000000000000000000000081565b60015481565b7f000000000000000000000000000000000000000000000000000000000000000081565b60026020528060005260406000206000915090508060000154908060010160009054906101000a900473ffffffffffffffffffffffffffffffffffffffff16908060020154908060030154908060040160009054906101000a900473ffffffffffffffffffffffffffffffffffffffff16908060040160149054906101000a900460ff16905086565b600060647f000000000000000000000000000000000000000000000000000000000000000060646102c29190610c2f565b60026000858152602001908152602001600020600301546102e39190610c85565b6102ed9190610d0e565b9050919050565b6002600054141561033a576040517f08c379a000000000000000000000000000000000000000000000000000000000815260040161033190610d9c565b60405180910390fd5b6002600081905550600061034d82610291565b9050600060026000848152602001908152602001600020905060008311801561037857506001548311155b6103b7576040517f08c379a00000000000000000000000000000000000000000000000000000000081526004016103ae90610e08565b60405180910390fd5b813410156103fa576040517f08c379a00000000000000000000000000000000000000000000000000000000081526004016103f190610e9a565b60405180910390fd5b8060040160149054906101000a900460ff161561044c576040517f08c379a000000000000000000000000000000000000000000000000000000000815260040161044390610f06565b60405180910390fd5b8060040160009054906101000a900473ffffffffffffffffffffffffffffffffffffffff1673ffffffffffffffffffffffffffffffffffffffff166108fc82600301549081150290604051600060405180830381858888f193505050501580156104ba573d6000803e3d6000fd5b507f000000000000000000000000000000000000000000000000000000000000000073ffffffffffffffffffffffffffffffffffffffff166108fc8260030154846105059190610f26565b9081150290604051600060405180830381858888f19350505050158015610530573d6000803e3d6000fd5b5060018160040160146101000a81548160ff0219169083151502179055508060010160009054906101000a900473ffffffffffffffffffffffffffffffffffffffff1673ffffffffffffffffffffffffffffffffffffffff166323b872dd303384600201546040518463ffffffff1660e01b81526004016105b393929190610f69565b600060405180830381600087803b1580156105cd57600080fd5b505af11580156105e1573d6000803e3d6000fd5b505050503373ffffffffffffffffffffffffffffffffffffffff168160040160009054906101000a900473ffffffffffffffffffffffffffffffffffffffff1673ffffffffffffffffffffffffffffffffffffffff168260010160009054906101000a900473ffffffffffffffffffffffffffffffffffffffff1673ffffffffffffffffffffffffffffffffffffffff167f8b4c9c8a607d67b321582dd8461041b1dc2ceeca70c8b7f37f8e02095cf2e76d86856002015486600301546040516106ad93929190610fa0565b60405180910390a45050600160008190555050565b60026000541415610708576040517f08c379a00000000000000000000000000000000000000000000000000000000081526004016106ff90610d9c565b60405180910390fd5b600260008190555060008111610753576040517f08c379a000000000000000000000000000000000000000000000000000000000815260040161074a90611023565b60405180910390fd5b6001600081548092919061076690611043565b91905055508273ffffffffffffffffffffffffffffffffffffffff166323b872dd3330856040518463ffffffff1660e01b81526004016107a893929190610f69565b600060405180830381600087803b1580156107c257600080fd5b505af11580156107d6573d6000803e3d6000fd5b505050506040518060c0016040528060015481526020018473ffffffffffffffffffffffffffffffffffffffff1681526020018381526020018281526020013373ffffffffffffffffffffffffffffffffffffffff168152602001600015158152506002600060015481526020019081526020016000206000820151816000015560208201518160010160006101000a81548173ffffffffffffffffffffffffffffffffffffffff021916908373ffffffffffffffffffffffffffffffffffffffff160217905550604082015181600201556060820151816003015560808201518160040160006101000a81548173ffffffffffffffffffffffffffffffffffffffff021916908373ffffffffffffffffffffffffffffffffffffffff16021790555060a08201518160040160146101000a81548160ff0219169083151502179055509050503373ffffffffffffffffffffffffffffffffffffffff168373ffffffffffffffffffffffffffffffffffffffff167f655a0cf9c8db81512be9a76dc1c5ae5380b8816ce6ad659cd61b715e2999d59a600154858560405161097f93929190610fa0565b60405180910390a36001600081905550505050565b600073ffffffffffffffffffffffffffffffffffffffff82169050919050565b60006109bf82610994565b9050919050565b6109cf816109b4565b82525050565b60006020820190506109ea60008301846109c6565b92915050565b6000819050919050565b610a03816109f0565b82525050565b6000602082019050610a1e60008301846109fa565b92915050565b600080fd5b610a32816109f0565b8114610a3d57600080fd5b50565b600081359050610a4f81610a29565b92915050565b600060208284031215610a6b57610a6a610a24565b5b6000610a7984828501610a40565b91505092915050565b6000819050919050565b6000610aa7610aa2610a9d84610994565b610a82565b610994565b9050919050565b6000610ab982610a8c565b9050919050565b6000610acb82610aae565b9050919050565b610adb81610ac0565b82525050565b60008115159050919050565b610af681610ae1565b82525050565b600060c082019050610b1160008301896109fa565b610b1e6020830188610ad2565b610b2b60408301876109fa565b610b3860608301866109fa565b610b4560808301856109c6565b610b5260a0830184610aed565b979650505050505050565b6000610b6882610994565b9050919050565b6000610b7a82610b5d565b9050919050565b610b8a81610b6f565b8114610b9557600080fd5b50565b600081359050610ba781610b81565b92915050565b600080600060608486031215610bc657610bc5610a24565b5b6000610bd486828701610b98565b9350506020610be586828701610a40565b9250506040610bf686828701610a40565b9150509250925092565b7f4e487b7100000000000000000000000000000000000000000000000000000000600052601160045260246000fd5b6000610c3a826109f0565b9150610c45836109f0565b9250827fffffffffffffffffffffffffffffffffffffffffffffffffffffffffffffffff03821115610c7a57610c79610c00565b5b828201905092915050565b6000610c90826109f0565b9150610c9b836109f0565b9250817fffffffffffffffffffffffffffffffffffffffffffffffffffffffffffffffff0483118215151615610cd457610cd3610c00565b5b828202905092915050565b7f4e487b7100000000000000000000000000000000000000000000000000000000600052601260045260246000fd5b6000610d19826109f0565b9150610d24836109f0565b925082610d3457610d33610cdf565b5b828204905092915050565b600082825260208201905092915050565b7f5265656e7472616e637947756172643a207265656e7472616e742063616c6c00600082015250565b6000610d86601f83610d3f565b9150610d9182610d50565b602082019050919050565b60006020820190508181036000830152610db581610d79565b9050919050565b7f6974656d20646f65736e27742065786973740000000000000000000000000000600082015250565b6000610df2601283610d3f565b9150610dfd82610dbc565b602082019050919050565b60006020820190508181036000830152610e2181610de5565b9050919050565b7f6e6f7420656e6f75676820657468657220746f20636f766572206974656d207060008201527f7269636520616e64206d61726b65742066656500000000000000000000000000602082015250565b6000610e84603383610d3f565b9150610e8f82610e28565b604082019050919050565b60006020820190508181036000830152610eb381610e77565b9050919050565b7f6974656d20616c726561647920736f6c64000000000000000000000000000000600082015250565b6000610ef0601183610d3f565b9150610efb82610eba565b602082019050919050565b60006020820190508181036000830152610f1f81610ee3565b9050919050565b6000610f31826109f0565b9150610f3c836109f0565b925082821015610f4f57610f4e610c00565b5b828203905092915050565b610f6381610b5d565b82525050565b6000606082019050610f7e6000830186610f5a565b610f8b6020830185610f5a565b610f9860408301846109fa565b949350505050565b6000606082019050610fb560008301866109fa565b610fc260208301856109fa565b610fcf60408301846109fa565b949350505050565b7f5072696365206d7573742062652067726561746572207468616e207a65726f00600082015250565b600061100d601f83610d3f565b915061101882610fd7565b602082019050919050565b6000602082019050818103600083015261103c81611000565b9050919050565b600061104e826109f0565b91507fffffffffffffffffffffffffffffffffffffffffffffffffffffffffffffffff82141561108157611080610c00565b5b60018201905091905056fea26469706673582212203eed77269ffd1b3ecf7f27b77a4177d089862cc2d02f15278e159f6de3d6941664736f6c634300080c0033",
  "immutableReferences": {
    "2191": [
      {
        "length": 32,
        "start": 444
      },
      {
        "length": 32,
        "start": 1213
      }
    ],
    "2193": [
      {
        "length": 32,
        "start": 486
      },
      {
        "length": 32,
        "start": 663
      }
    ]
  },
  "source": "// SPDX-License-Identifier: MIT\r\npragma solidity >=0.4.22 <0.9.0;\r\n//import \"@openzeppelin/contracts/access/Ownable.sol\";\r\nimport \"@openzeppelin/contracts/token/ERC721/IERC721.sol\";\r\nimport \"@openzeppelin/contracts/security/ReentrancyGuard.sol\";\r\n\r\ncontract Marketplace is ReentrancyGuard{\r\n\r\n    //variables\r\n    address payable public immutable feeAccount; //the account that receives fees\r\n    uint public immutable feePercent;\r\n    //\r\n    uint public itemCount;\r\n\r\n    struct Item {\r\n        uint itemId;\r\n        IERC721 nft;\r\n        uint tokenId;\r\n        uint price;\r\n        address payable seller;\r\n        bool sold;\r\n    }\r\n\r\n    //ItemId -> Item\r\n    mapping(uint => Item) public items;\r\n\r\n    //events\r\n\r\n    event Offered (uint itemId, address indexed nft, uint tokenId, uint price, address indexed seller);\r\n    event Bought(uint itemId, address indexed nft,uint tokenId, uint price, address indexed seller, address indexed buyer);\r\n\r\n    constructor(uint _feePercent){\r\n        feeAccount = payable(msg.sender);\r\n        feePercent = _feePercent;\r\n    }\r\n\r\n    //make item to offer on the marketplace\r\n    function makeItem(IERC721 _nft, uint _tokenId, uint _price ) external nonReentrant {\r\n        require(_price > 0, \"Price must be greater than zero\");\r\n        //increment itemCount\r\n        itemCount ++;\r\n        //transfer nft\r\n        _nft.transferFrom(msg.sender, address(this),_tokenId);\r\n\r\n        //add new item to items mapping\r\n        items[itemCount] = Item(itemCount,_nft,_tokenId,_price,payable(msg.sender),false);\r\n        //emit Offered event\r\n        emit Offered(itemCount,address(_nft),_tokenId,_price,msg.sender);\r\n    }\r\n\r\n    function purchaseItem(uint _itemId) external payable nonReentrant {\r\n        uint _totalPrice = getTotalPrice(_itemId);\r\n\r\n        Item storage item = items[_itemId];\r\n        require(_itemId > 0 && _itemId <= itemCount, \"item doesn't exist\" );\r\n        require(msg.value >= _totalPrice, \"not enough ether to cover item price and market fee\");\r\n        require(!item.sold, \"item already sold\");\r\n\r\n        //pay seller and feeAccount\r\n        item.seller.transfer(item.price);\r\n        feeAccount.transfer(_totalPrice - item.price);\r\n        item.sold = true;\r\n        item.nft.transferFrom(address(this),msg.sender,item.tokenId);\r\n\r\n        //emit Bought event\r\n        emit Bought(_itemId,address(item.nft),item.tokenId,item.price,item.seller,msg.sender);\r\n    }\r\n\r\n    function getTotalPrice(uint _itemId) view public returns(uint){\r\n        return ((items[_itemId].price * (100 + feePercent))/100);\r\n    }\r\n\r\n}\r\n",
  "sourcePath": "D:\\rtest\\contracts\\Marketplace.sol",
  "compiler": {
    "name": "solc",
    "version": "0.8.12+commit.f00d7308.Emscripten.clang"
  },
  "schemaVersion": "3.4.7",
  "updatedAt": "2022-07-11T10:35:51.080Z",
  "networkType": "ethereum",
  "devdoc": {
    "kind": "dev",
    "methods": {},
    "version": 1
  },
  "userdoc": {
    "kind": "user",
    "methods": {},
    "version": 1
  }
}